:020000040800F2
:100000003C0C002059020008511600085D1600083B
:10001000651600086D16000875160008000000003F
:100020000000000000000000000000007D16000835
:10003000891600080000000095160008A1160008A7
:10004000B5020008B5020008B5020008B5020008B4
:10005000B5020008B5020008E927000815290008C4
:10006000B1290008C1290008D1290008B5020008FB
:10007000B5020008B5020008B5020008B502000884
:10008000B5020008B5020008B5020008B502000874
:10009000B5020008B5020008B5020008B502000864
:1000A000B5020008B5020008B5020008B502000854
:1000B000114900085D28000801280008B502000861
:1000C000B5020008B5020008B5020008B502000834
:1000D000B5020008F1260008B502000855270008FF
:1000E000B5020008B5020008B5020008B502000814
:1000F000B5020008B5020008B9280008B5020008DA
:10010000B5020008B5020008B5020008B5020008F3
:10011000B5020008B5020008B5020008B5020008E3
:10012000B5020008B5020008B5020008B5020008D3
:10013000B5020008B5020008B5020008B5020008C3
:10014000B5020008B5020008B5020008B5020008B3
:10015000B5020008B5020008B5020008B5020008A3
:10016000B5020008B5020008B5020008B502000893
:10017000B5020008B5020008B5020008B502000883
:10018000B5020008B502000880B485B000AF034690
:100190003960FB800D4B1B685B8AFB60FB88002B82
:1001A0000AD10A4B1B683A689188FA6892B28A1A97
:1001B00092B21A82002303E03B681A68FB6813447A
:1001C00018461437BD4680BC704700BF3802002077
:1001D00080B485B000AF0346FB711A4B1B78BB603F
:1001E0000023FB601EE0FB68DBB29B0003F1804351
:1001F00003F5B843FA68D2B2920002F1804202F5E8
:10020000B842126892B2114640F60F720A4042F4A8
:10021000004242F08002F968C9B20A431A60FB68E2
:100220000133FB60FA68BB689A42DCD3064AFB796B
:1002300063F07F03DBB2136000BF1437BD4680BCA0
:10024000704700BF4C0000204C5C004080B400AF01
:1002500000BFBD4680BC704780B582B000AF104B78
:100260007B60104B3B6007E03B681A1D3A607A6880
:10027000111D796012681A603B680B4A9342F3D3F0
:100280000A480B494FF000028842B8BF40F8042BDF
:10029000FADB01F0C5FB00BF0837BD4680BD00BFDB
:1002A0007C63000800000020580100205801002055
:1002B0003C04002080B400AFFEE700BF80B48BB0E8
:1002C00000AF786000233B620023FB610023BB6129
:1002D00000237B6100233B6100237B620023FB60E2
:1002E0000023BB60924B5B6803F00C033B623B6AEC
:1002F000042B07D0082B09D0002B30D17B688D4A06
:100300001A6030E07B688B4A1A602CE0884B5B688F
:1003100003F47013FB61864B5B6803F48033BB61AD
:10032000FB699B0C0233FB61BB69002B05D1FB69A8
:10033000814A02FB03F37B620DE07D4BDB6A03F035
:100340000F0301337B617B4A7B69B2FBF3F3FA69EC
:1003500002FB03F37B627B687A6A1A6003E07B68C6
:10036000744A1A6000BF724B5B6803F0F0033B6293
:100370003B6A1B093B62714A3B6A13441B78DBB240
:10038000BB607B681A68BB68DA407B685A60684B60
:100390005B6803F4E0633B623B6A1B0A3B62674AAB
:1003A0003B6A13441B78DBB23B617B685A683B694C
:1003B000DA407B689A605E4B5B6803F460533B6293
:1003C0003B6ADB0A3B625D4A3B6A13441B78DBB243
:1003D000FB607B685A68FB68DA407B68DA60544BE4
:1003E000DB6A03F4F8733B623B6A1B093B62544AC5
:1003F0003B6A32F813309BB23B613B6903F0100358
:10040000002B06D07A6A3B69B2FBF3F27B681A6173
:1004100003E07B681A687B681A61454BDB6A03F46A
:1004200078533B623B6A5B0A3B62454A3B6A32F85F
:1004300013309BB23B613B6903F01003002B06D0E5
:100440007A6A3B69B2FBF3F27B685A6103E07B682E
:100450001A687B685A61364B1B6B03F01003002B44
:1004600003D17B68334A9A6103E07B681A687B6832
:100470009A612F4B1B6B03F02003002B03D17B6889
:100480002C4ADA6103E07B681A687B68DA61284BE2
:100490001B6B03F48073002B0DD07B681A687B6A9A
:1004A0009A4208D1FA68BB689A4204D17B6A5A0022
:1004B0007B681A6203E07B68DA687B681A621C4B0F
:1004C0001B6B03F40073002B0DD07B681A687B6AEA
:1004D0009A4208D1FA68BB689A4204D17B6A5A00F2
:1004E0007B685A6203E07B68DA687B685A62104B6B
:1004F0001B6B03F00303002B04D17B68DA687B6875
:100500009A6228E00A4B1B6B03F00303012B04D112
:100510007B681A687B689A621DE0054B1B6B03F0D1
:100520000303022B0ED17B684FF400429A6212E063
:100530000010024000127A0000093D000000002077
:1005400010000020604B1B6B03F00303032B02D150
:100550007B685E4A9A625C4B1B6B03F44033002B52
:1005600004D17B689A687B68DA6221E0564B1B6B8A
:1005700003F44033B3F5803F04D17B681A687B688D
:10058000DA6215E0504B1B6B03F44033B3F5003FC8
:1005900004D17B684FF40042DA6209E04A4B1B6BDE
:1005A00003F44033B3F5403F02D17B68474ADA6237
:1005B000454B1B6B03F44023002B04D17B689A68E6
:1005C0007B681A6321E0404B1B6B03F44023B3F5B7
:1005D000802F04D17B681A687B681A6315E03A4B58
:1005E0001B6B03F44023B3F5002F04D17B684FF459
:1005F00000421A6309E0344B1B6B03F44023B3F54C
:10060000402F02D17B68314A1A632F4B1B6B03F4D6
:100610004013002B04D17B689A687B685A6321E001
:10062000294B1B6B03F44013B3F5801F04D17B6887
:100630001A687B685A6315E0234B1B6B03F4401365
:10064000B3F5001F04D17B684FF400425A6309E000
:100650001D4B1B6B03F44013B3F5401F02D17B68A5
:100660001A4A5A63184B1B6B03F44003002B04D146
:100670007B689A687B689A6321E0134B1B6B03F4D9
:100680004003B3F5800F04D17B681A687B689A63D6
:1006900015E00D4B1B6B03F44003B3F5000F04D1C1
:1006A0007B684FF400429A6309E0074B1B6B03F42D
:1006B0004003B3F5400F02D17B68044A9A6300BF40
:1006C0002C37BD4680BC70470010024000127A00F3
:1006D00080B483B000AF7860034A7B68136000BFCA
:1006E0000C37BD4680BC7047D800424280B483B00E
:1006F00000AF78600B46FB70FB78002B06D00949F1
:10070000084B5A697B6813434B6106E00549054B6A
:100710005A697B68DB4313404B6100BF0C37BD4611
:1007200080BC70470010024080B483B000AF786096
:100730000B46FB70FB78002B06D00949084B9A69E1
:100740007B6813438B6106E00549054B9A697B681A
:10075000DB4313408B6100BF0C37BD4680BC704744
:100760000010024080B483B000AF78600B46FB708D
:10077000FB78002B06D00949084BDA697B681343E4
:10078000CB6106E00549054BDA697B68DB43134022
:10079000CB6100BF0C37BD4680BC704700100240E3
:1007A00080B483B000AF78600B46FB70FB78002B01
:1007B00006D00949084BDA687B681343CB6006E032
:1007C0000549054BDA687B68DB431340CB6000BF0B
:1007D0000C37BD4680BC70470010024080B483B027
:1007E00000AF78600B46FB70FB78002B06D0094900
:1007F000084B1A697B6813430B6106E00549054BFA
:100800001A697B68DB4313400B6100BF0C37BD46A0
:1008100080BC70470010024080B584B000AF7860A3
:100820000023FB730023BB7300F00EFA7B681A7879
:100830007B685B781343DAB27B689B781343DAB248
:10084000FB7B1343DBB2FB737B681A797B685B79B4
:100850001343DAB27B689B791343DAB27B68DB78A7
:100860001343DAB2BB7B1343DBB2BB7307F10F0355
:100870001A462021322000F075F807F10E031A46BF
:100880002321322000F06EF800BF1037BD4680BD36
:1008900080B584B000AF786007F10F0201232121F9
:1008A000322000F00DF9FB7B03F00C03DBB2FB738D
:1008B0007B681A787B685B781343DAB27B689B7835
:1008C0001343DAB27B68DB781343DAB2FB7B134362
:1008D000DBB2FB7307F10F031A462121322000F02F
:1008E00041F800BF1037BD4680BD00BF80B584B061
:1008F00000AF78600023FB730023BB7300237B737E
:1009000000F0A2F97B681A787B685B781343DAB24F
:10091000FB7B1343DBB2FB737B68DA78BB7B13434F
:10092000DBB2BB737B689A787B7B1343DBB27B7350
:1009300007F10F031A4600213C2000F013F807F1DD
:100940000E031A4601213C2000F00CF807F10D03BC
:100950001A4602213C2000F005F800BF1037BD46C2
:1009600080BD00BF80B584B002AF03463A60FB7122
:100970000B46BB71504B4FF420421A600BE04E4BBC
:100980001B685A1E4C490A60002B04D101F0B4FDCB
:1009900003469BB28CE04FF40041484802F03EFB16
:1009A0000346002BEBD1FB7999B24FF4005300932F
:1009B0004FF080730122414802F0EAFA3E4B4FF4B7
:1009C00020421A600BE03C4B1B685A1E3A490A60F1
:1009D000002B04D101F090FD03469BB268E0022198
:1009E000364802F01BFB0346002BECD0BB791946BE
:1009F000324802F0F9FA304B4FF420421A600BE013
:100A00002D4B1B685A1E2C490A60002B04D101F0A3
:100A100073FD03469BB24BE08021284802F0FEFAAA
:100A20000346002BECD0FB7999B2002300934FF0E2
:100A300000730122214802F0ABFA1F4B4FF4204211
:100A40001A600BE01C4B1B685A1E1B490A60002BE6
:100A500004D101F051FD03469BB229E00221174861
:100A600002F0DCFA0346002BECD03B681B781946F9
:100A7000124802F0B9FA104B4FF420421A600BE012
:100A80000D4B1B685A1E0C490A60002B04D101F063
:100A900033FD03469BB20BE02021084802F0BEFA6A
:100AA0000346002BECD02021044802F0D5FA0023A5
:100AB00018460837BD4680BD2C0000200054004079
:100AC00080B584B002AF3A601A460346FB710B460C
:100AD000BB711346BB805A4B4FF420421A600BE0A7
:100AE000574B1B685A1E56490A60002B04D101F06F
:100AF00003FD03469BB29FE04FF40041514802F0D2
:100B00008DFA0346002BEBD1FB7999B24FF40053D9
:100B10000093002301224B4802F03AFA484B4FF46D
:100B200020421A600BE0464B1B685A1E44490A607B
:100B3000002B04D101F0E0FC03469BB27CE00221D3
:100B4000404802F06BFA0346002BECD0BB88012B27
:100B500003D9BB7963F07F03BB71BB791946394870
:100B600002F042FA364B4FF420421A600BE0344B4D
:100B70001B685A1E32490A60002B04D101F0BCFCEC
:100B800003469BB258E040212E4802F047FA034644
:100B9000002BECD0FB7999B2BB88DAB24FF410533A
:100BA00000934FF00073274802F0F2F924E0244B41
:100BB0004FF420421A600BE0214B1B685A1E20495B
:100BC0000A60002B04D101F097FC03469BB233E08E
:100BD00004211C4802F022FA0346002BECD01948ED
:100BE00002F010FA03461A463B681A703B6801335C
:100BF0003B60BB88013BBB80BB88002BD7D1104B2F
:100C00004FF420421A600BE00D4B1B685A1E0C4932
:100C10000A60002B04D101F06FFC03469BB20BE08D
:100C20002021084802F0FAF90346002BECD02021DD
:100C3000044802F011FA002318460837BD4680BD6B
:100C40002C0000200054004080B58CB000AF012182
:100C50004FF40010FFF786FD01214FF48020FFF7CD
:100C600045FD01214FF40010FFF740FD01214FF435
:100C70000010FFF73BFD01214FF40010FFF736FD98
:100C800004220621414800F0EDFD042207213F48DF
:100C900000F0E8FD022387F82C30002387F82E307F
:100CA000022387F82F30032387F82D304023BB62BF
:100CB00007F128031946354800F008FD8023BB6280
:100CC00007F128031946314800F000FD002387F89A
:100CD0002C30002387F82E30002387F82F30032391
:100CE00087F82D300423BB6207F1280319462848F2
:100CF00000F0ECFC0221042003F090F902233B6297
:100D0000002387F82430082387F82530012387F84B
:100D1000263007F12003184601F062FE00233B61F4
:100D20000023BB600023FB6000237B610023BB61C9
:100D30000023FB61174B7B603B1D1946164802F0F0
:100D4000A7F80121144802F007F91023BB62002321
:100D500087F82C30002387F82E30032387F82D30B6
:100D6000002387F82F3007F128031946084800F0C0
:100D7000ADFC2023BB6207F128031946044800F0AC
:100D8000A5FC00BF3037BD4680BD00BF0004004851
:100D900000100048252090000054004080B483B02B
:100DA00000AF0346FB800549FA884FF6F8731340FD
:100DB0000B6000BF0C37BD4680BC7047505C0040E4
:100DC00080B483B000AF03460A46FB711346BB8074
:100DD000FB799B0003F1804303F5B843FA79920055
:100DE00002F1804202F5B842126812B222F4EC42DB
:100DF00022F0700211B2B7F904200A4312B292B283
:100E00001A6000BF0C37BD4680BC704790B482B0FA
:100E100000AF03460A46FB711346BB80FB799B007B
:100E200003F1804303F5B8431B689BB223F4E0430E
:100E300023F040039CB2BB8803F010039BB2002B4D
:100E400002D084F010039CB2BB8803F020039BB255
:100E5000002B02D084F020039CB2FB799B0003F1AD
:100E6000804303F5B843044A224392B21A6000BF9C
:100E70000837BD4690BC70478080FFFF90B482B0B9
:100E800000AF03460A46FB711346BB80FB799B000B
:100E900003F1804303F5B8431B689BB223F48043FE
:100EA00023F070039CB2BB8803F480539BB2002BE9
:100EB00002D084F480539CB2BB8803F400539BB2ED
:100EC000002B02D084F400539CB2FB799B0003F109
:100ED000804303F5B843044A224392B21A6000BF2C
:100EE0000837BD4690BC70478080FFFF90B482B049
:100EF00000AF0346FB71FB799B0003F1804303F5D0
:100F0000B8431B689BB223F4804323F070039CB268
:100F100084F480539CB284F400539CB2FB799B0010
:100F200003F1804303F5B843044A224392B21A60A6
:100F300000BF0837BD4690BC704700BF8080FFFFF0
:100F400080B483B000AF0346FB71FB799B0003F1D3
:100F5000804303F5B843FA79920002F1804202F52A
:100F6000B842126811B240F60F620A4011B2054A47
:100F70000A4312B292B21A6000BF0C37BD4680BC61
:100F8000704700BF8080FFFF80B483B000AF03468E
:100F90000A46FB711346BB800B4B1B689BB21A467B
:100FA000FB79DB00134403F1005303F540535B006E
:100FB0001A46BB885B089BB25B00136000BF0C370E
:100FC000BD4680BC704700BF505C004080B483B019
:100FD00000AF03460A46FB711346BB800A4B1B68F1
:100FE0009BB21A46FB79DB001A44084B13445B00A2
:100FF0001A46BB885B089BB25B00136000BF0C37CE
:10100000BD4680BC704700BF505C004004300020EB
:1010100080B483B000AF03460A46FB711346BB8021
:10102000084B1B689BB21A46FB79DB001A44064B3F
:1010300013445B001A46BB88136000BF0C37BD46E3
:1010400080BC7047505C00400230002080B485B006
:1010500000AF03460A46FB711346BB801A4B1B6860
:101060009BB21A46FB79DB001A44184B13445B0011
:10107000BB60BB883E2B12D9BB885B09FB81BB8858
:1010800003F01F03002B02D1FB89013BFB81FB898D
:101090009B0243F400431A46BB681A600FE0BB880A
:1010A0005B08FB81BB8803F00103002B02D0FB89A6
:1010B0000133FB81FB899B021A46BB681A6000BFA3
:1010C0001437BD4680BC7047505C0040063000209D
:1010D00080B582B000AF01214FF08050FFF742FB96
:1010E00001210120FFF720FB01214FF40010FFF741
:1010F000FDFA01214FF40030FFF7F8FA4FF4C05326
:101100003B6003237B7102233B710023BB710023EF
:10111000FB713B4619464FF0904000F0D7FA0E2283
:101120000B214FF0904000F09DFB0E220C214FF060
:10113000904000F097FB0121002003F04DFE1220AB
:1011400001F048FD0A4B12221A60094B00221A7165
:10115000074B08225A71064B01229A71044801F08C
:101160003FFC002001F036FD00BF0837BD4680BDC2
:101170000002002080B500AF0020FFF7A9FA01218E
:101180004FF40000FFF7EEFA00BF80BD80B582B0DB
:1011900000AF4FF4A06001F085FF14233B710223E0
:1011A0007B710023BB710123FB713B1D184601F0CD
:1011B0008BFF2A233B7101237B710123FB713B1DB4
:1011C000184601F081FF06233B7100237B713B1D14
:1011D000184601F079FF00BF0837BD4680BD00BF4B
:1011E00080B582B000AF0346FB71FB79002B05D0C0
:1011F0004FF48041064800F027FB04E04FF48041A3
:10120000034800F013FB00BF0837BD4680BD00BF98
:101210000010004880B584B000AF0F4B1B68FB6026
:101220000E4B1B68BB600E4B1B687B60FA687B68CB
:101230001344FB60FB68002B09D008220949F868B9
:1012400000F014F804220849B86800F00FF800BF55
:101250001037BD4680BD00BFE8F7FF1FECF7FF1F4A
:10126000F0F7FF1F320000204200002080B487B05A
:1012700000AFF860B9601346FB710023FB750023D3
:10128000FB7527E0FB681B0F092B0BD8FB7D5B0070
:101290001A46BB681344FA68120FD2B23032D2B287
:1012A0001A700AE0FB7D5B001A46BB681344FA68BB
:1012B000120FD2B23732D2B21A70FB681B01FB6038
:1012C000FB7D5B000133BA68134400221A70FB7D7A
:1012D0000133FB75FA7DFB799A42D3D300BF1C37EB
:1012E000BD4680BC704700BF80B500AFFFF792FFDE
:1012F000064B1B6800229A7200F0FCFA01F0BAFE5D
:10130000034B00221A6000BF80BD00BF38020020DE
:101310005801002080B500AF264B1B6800229A724E
:10132000244B1B680022DA72224B1B68224AD279B6
:101330005A720020FFF732FD4FF400710020FFF7D2
:101340003FFD10210020FFF761FD18210020FFF76D
:101350003DFE58210020FFF717FE0020FFF7F0FDAB
:10136000164B93F82C309BB219460020FFF76EFE07
:101370000020FFF7BBFD4FF4C0610120FFF720FD07
:101380004FF480710120FFF7FFFD04210120FFF7DA
:101390003FFE00210120FFF771FD20210120FFF712
:1013A00035FD0020FEF714FF054B01221A6000BF37
:1013B00080BD00BF38020020A0620008500000205D
:1013C0005801002080B483B000AF074B7B607B687E
:1013D0009B7A002B02D0054B05221A6000BF0C3708
:1013E000BD4680BC704700BF180200205801002095
:1013F00080B400AF034B04221A6000BFBD4680BC1E
:10140000704700BF5801002080B400AF00BFBD4648
:1014100080BC704780B400AF00BFBD4680BC704741
:1014200080B584B000AF0346FB710023FB60FB79FD
:10143000062B1BD11F4B1B681B7803F07F03012B6E
:1014400014D11C4B1B685B79002B0FD1194B1B6807
:101450009B78222B02D1184BFB6014E0154B1B68C4
:101460009B78212B0FD1154BFB600CE0114B1B68B7
:101470001B7803F07F03212B06D1FB79032B03D1CB
:101480000F4BFB6000E000BFFB68002B01D1022383
:101490000BE0084B1B68FA689A61064B1B68002238
:1014A0005A82FB6800209847002318461037BD4633
:1014B00080BD00BF3802002081150008A515000876
:1014C0002116000880B582B000AF0346FB71094BBE
:1014D0001B681B7803F07F03212B06D1FB790B2BB4
:1014E00003D100F089F8034600E0022318460837CC
:1014F000BD4680BD3802002080B582B000AF0346F3
:10150000FB80FB8804491846FEF73EFE034618465A
:101510000837BD4680BD00BFA400002080B582B062
:1015200000AF0346FB80FB8804491846FEF72CFEFB
:10153000034618460837BD4680BD00BFAC000020FA
:1015400080B584B000AF0346FB800B4B1B68DB7893
:10155000FB73FB7B042B01D9002309E0FB7BDB0041
:10156000064A1A44FB8811461846FEF70DFE03464C
:1015700018461037BD4680BD38020020C400002048
:1015800080B582B000AF0346FB80FB880449184653
:10159000FEF7FAFD034618460837BD4680BD00BF7A
:1015A000B400002080B582B000AF0346FB80FB880A
:1015B00004491846FEF7E8FD034618460837BD46BD
:1015C00080BD00BFBC00002080B483B000AF0346E4
:1015D0000A46FB711346BB71BB79002B01D0022375
:1015E00005E0FB79002B01D0022300E00023184620
:1015F0000C37BD4680BC704780B483B000AF064B4B
:101600001B68DB78FB71FB79044A136000231846E2
:101610000C37BD4680BC704738020020080200200D
:1016200080B483B000AF0346FB80FB88002B05D15C
:10163000054B1B6801221A82002300E0034B184669
:101640000C37BD4680BC70473802002008020020DD
:1016500080B400AF00BFBD4680BC704780B400AF0F
:10166000FEE700BF80B400AFFEE700BF80B400AF6C
:10167000FEE700BF80B400AFFEE700BF80B400AF5C
:1016800000BFBD4680BC704780B400AF00BFBD4600
:1016900080BC704780B400AF00BFBD4680BC7047BF
:1016A00080B500AF00F00EFF064B1B68013B054AFA
:1016B0001360054B1B78DBB20133DAB2024B1A70B0
:1016C00000BF80BDE80000209C01002080B487B0EE
:1016D00000AF7860396000237B6100233B61002309
:1016E000FB6000237B617CE001227B6902FA03F34B
:1016F0003B613B681A683B691340FB60FA683B69D1
:101700009A426BD13B681B79012B03D03B681B7954
:10171000022B34D17B689A687B695B00032101FA54
:1017200003F3DB431A407B689A607B689A683B68E6
:101730005B7919467B695B0001FA03F31A437B6806
:101740009A607B689B889AB27B699BB21946012399
:101750008B409BB2DB439BB213409AB27B689A806A
:101760007B689B889AB23B689B7919467B699BB2E0
:1017700001FA03F39BB213439AB27B689A807B68A9
:101780001A687B695B00032101FA03F3DB431A400B
:101790007B681A607B681A683B681B7919467B690D
:1017A0005B0001FA03F31A437B681A607B68DA680E
:1017B0007B699BB25B00032101FA03F3DB431A4010
:1017C0007B68DA607B68DA683B68DB7919467B699D
:1017D0005B0001FA03F31A437B68DA607B6901332B
:1017E0007B617B690F2B7FF67FAF00BF1C37BD4647
:1017F00080BC704780B485B000AF78600B467B80BA
:101800000023FB737B681B8A9AB27B8813409BB2D0
:10181000002B02D00123FB7301E00023FB73FB7B51
:1018200018461437BD4680BC704700BF80B483B0F3
:1018300000AF78600B467B807A887B689A6100BF36
:101840000C37BD4680BC704780B483B000AF786071
:101850000B467B807B687A881A8500BF0C37BD46B3
:1018600080BC704780B485B000AF78600B467B8049
:1018700013467B700023FB600023BB607A787B8873
:1018800003F007039B0002FA03F3FB607B88DB088D
:101890009BB218467B88DB089BB21A467B680832ED
:1018A00053F822207B8803F007039B000F2101FAE5
:1018B00003F3DB4302EA03017B6800F1080243F80B
:1018C00022107B88DB089BB21A467B68083253F8EB
:1018D0002220FB681343BB607B88DB089BB21A465F
:1018E0007B680832B96843F8221000BF1437BD4640
:1018F00080BC704780B582B000AF0120FFF770FC5C
:101900000123FB800C4AFB8813600C4B00221A80D9
:10191000094B0A4A12881A60094B00221A60074BC9
:101920004FF4E0521A80044B044A12881A600023D4
:1019300018460837BD4680BD405C00403C02002090
:10194000445C004080B500AF094B0A4A1A60084B5E
:101950001B6802221A72084B084A1A60084B094A8F
:101960001A60054B1B681B68984700BF80BD00BF0D
:101970003802002018020020100200205000002031
:10198000340200208000002080B483B000AF034602
:101990003960FB7197F90730002B0BDA0D49FB79A1
:1019A00003F00F03043B3A68D2B21201D2B20B44E7
:1019B0001A7609E0084997F907303A68D2B212015D
:1019C000D2B20B4483F8002300BF0C37BD4680BC65
:1019D000704700BF00ED00E000E100E080B582B09C
:1019E00000AF78607B68B3F1807F01D3012311E001
:1019F0000A4A7B6823F07F43013B53600F214FF07D
:101A0000FF30FFF7C1FF054B00229A60034B07220E
:101A10001A60002318460837BD4680BD10E000E07C
:101A200080B588B000AF0023FB610023FB767948C6
:101A3000FEF744FC774B5B68774AA2FB03235B0904
:101A40001846FFF7CBFF00F05FFD0121002003F0F7
:101A5000C3F900F071FD00F09DFD00F0C7FD00F03E
:101A6000F9FD6E4B00221A6000F0CEFA00F0E6FAA3
:101A700000F010FC02F09AFD4FF4967002F0C8FDE1
:101A8000786101214FF40030FEF730FE01237B60C6
:101A900000233B720023FB723B1D19464FF0904020
:101AA000FFF714FE00F0F0FA002000F0CFF84FF43A
:101AB0002F7002F01BFE7861594B41F690221A609C
:101AC000584B594A5949564802F066FB584B1B6817
:101AD0001A467969012002F0D9FE554B1B681A4657
:101AE0007969022002F0D2FE514B1B681A467969CF
:101AF000032002F0CBFE4E4B1B681A467969042086
:101B000002F0C4FE0FE004214A4801F097FF0346AB
:101B1000002B08D00421474801F0BAFF454B9B6BCE
:101B20001A46424B1A60414B1B68002BEBD002F067
:101B3000B7FA04213F4801F081FF0346002B10D083
:101B400004213C4801F0A4FF3A4B9B6BA3F53F53A3
:101B5000243B1A46354B1A60344B1B689B00334AB2
:101B600013600421344801F069FF0346002B10D0B4
:101B70000421314801F08CFF2F4B9B6BA3F53D53A3
:101B80000E3B1A46284B1A60274B1B689B00264ABF
:101B900013600421294801F051FF0346002B12D0A5
:101BA0000421264801F074FF244B9B6B1A46244BFA
:101BB0001A60234B1B68A3F51253383B184A12686E
:101BC00013441F4A136004211E4801F037FF0346E7
:101BD000002B15D004211B4801F05AFF194B9B6BB9
:101BE000A3F53F531A3B1A460E4B1A600D4B1B6868
:101BF000154A82FB03125210DB17D31A094A1360ED
:101C0000084B094A09490E4802F052FB0D2000F02A
:101C100055FD8EE79C0300201F85EB5160010020DD
:101C20009003002098010020900100208C010020EA
:101C3000F000002000080040000400400034014093
:101C400094010020004001406766666680B58CB054
:101C500000AF0346FB7101210420FEF783FD012143
:101C60000220FEF77FFD01214FF40050FEF75CFDDE
:101C700001214FF48030FEF757FD01214FF4801011
:101C8000FEF734FD4FF48053BB62022387F82C30FB
:101C9000032387F82D30012387F82E30022387F89D
:101CA0002F3007F128031946D048FFF70FFD022215
:101CB0000C21CE48FFF7D6FD4FF48051CB48FFF7FB
:101CC000C3FD01214FF40020FEF710FD4023BB624D
:101CD000022387F82C30032387F82D30012387F85F
:101CE0002E30022387F82F3007F128031946C04809
:101CF000FFF7ECFC02220621BD48FFF7B3FD4021AF
:101D0000BB48FFF7A1FD01214FF40030FEF7EEFCC8
:101D10004FF40043BB62022387F82C30032387F87B
:101D20002D30012387F82E30022387F82F3007F15A
:101D3000280319464FF09040FFF7C8FC02220F21FC
:101D40004FF09040FFF78EFD4FF400414FF0904070
:101D5000FFF77AFD01214FF48000FEF7C7FC4FF436
:101D60000073BB62022387F82C30032387F82D30E1
:101D7000012387F82E30022387F82F3007F128033C
:101D800019469C48FFF7A2FC032209219948FFF756
:101D900069FD4FF400719748FFF756FD0023BB83A0
:101DA0000023FB834FF6FF733B620023BB840023B9
:101DB00087F8263007F11C0319468F4801F0E6F931
:101DC0000023BB830023FB834FF6FF733B6200239A
:101DD000BB84002387F8263007F11C031946874887
:101DE00001F0D4F90023BB830023FB834FF6FF737C
:101DF0003B620023BB84002387F8263007F11C03D5
:101E000019467F4801F0C2F90023BB830023FB83FE
:101E10004FF6FF733B620023BB84002387F8263014
:101E200007F11C031946774801F0B0F907F11003D8
:101E3000184601F023FD00233B820123BB820023CF
:101E40007B8201233B8307F1100319466A4801F0A6
:101E50002DFD07F11003184601F010FD00233B8211
:101E60000123BB8200237B8201233B8307F1100304
:101E70001946624801F01AFD07F11003184601F0F7
:101E8000FDFC00233B820123BB8200237B820123D4
:101E90003B8307F110031946594801F007FD07F18C
:101EA0001003184601F0EAFC00233B820123BB82A9
:101EB00000237B8201233B8307F11003194651481D
:101EC00001F0F4FC50214C4801F0F4FD04214A4893
:101ED00001F00CFE8021484801F020FE50214748C7
:101EE00001F0E8FD0421454801F000FE802143484F
:101EF00001F014FE5021424801F0DCFD042140486D
:101F000001F0F4FD80213E4801F008FE50213D48DB
:101F100001F0D0FD04213B4801F0E8FD8021394863
:101F200001F0FCFD1E233B7302237B730023BB7374
:101F30000123FB731D233B7303237B730023BB73BC
:101F40000123FB732E233B7304237B730023BB739A
:101F50000123FB7318233B7300237B730023BB73A4
:101F60000123FB73FB79002B0CD11921224801F0CE
:101F70008FFD01220621204801F040FD01211E486D
:101F800001F0C0F9FB79012B0CD119211B4801F09C
:101F90007FFD01220621194801F030FD012117487B
:101FA00001F0B0F9FB79022B0CD11921144801F092
:101FB0006FFD01220621124801F020FD0121104889
:101FC00001F0A0F9FB79032B0CD101210D4801F0A0
:101FD00099F9012206210B4801F010FD1921094849
:101FE00001F056FD00BF3037BD4680BD000C0048F3
:101FF00000080048001400480008004000040040A9
:10200000003401400040014080B500AFFFF760F8A8
:10201000FFF7B0F8FFF7BAF8FFF794FC00BF054BE5
:102020001B68052B03D0044B1B68002BF7D100BFA6
:1020300080BD00BF58010020E800002080B584B0BA
:1020400000AF08233B7200237B720723BB7230234F
:10205000FB7200233B7300237B731023BB7307F1D8
:102060000803184601F0FEFD00233B7100237B713D
:102070003B1D184601F032FE102001F055FE00BF56
:102080001037BD4680BD00BF80B582B000AF254B84
:1020900000221A70244B00221A700023FB7127E0E3
:1020A000224800F047F8BB88184603F08FFE02462E
:1020B0001E4B1B681946104603F0D4FD0346184614
:1020C00004F0C4F80346BB807B88184603F07EFE0C
:1020D0000246164B5B681946104603F0C3FD0346E3
:1020E000184604F0B3F803467B80FB790133FB719B
:1020F000FB79092BD4D9BB880D4AA2FB0323DB084B
:102100009BB2DAB2074B1A707B88094AA2FB032301
:10211000DB089BB2DAB2044B1A7000BF0837BD4629
:1021200080BD00BFB3010020B40100208001002069
:10213000CDCCCCCC90B58BB000AF786007F1180354
:1021400000221A609A8007F1100300221A609A8018
:102150000023FB734FF000037B6200233B6207F117
:102160000F0301222321184601F030FE07F1180366
:1021700006222821184601F029FEFB7B03F04003CC
:10218000002B26D100233B621FE03B6A5B0001333A
:1021900007F12802134413F8103C9BB21B029AB2B9
:1021A0003B6A5B0007F128010B4413F8103C9BB21B
:1021B00013449BB21AB23B6A5B0007F128010B443F
:1021C00023F8182C3B6A01333B623B6A022BDCDDAF
:1021D00025E000233B621FE03B6A5B0007F1280219
:1021E000134413F8103C9BB21B029AB23B6A5B008B
:1021F000013307F128010B4413F8103C9BB2134440
:102200009BB21AB23B6A5B0007F128010B4423F82A
:10221000182C3B6A01333B623B6A022BDCDDFB7B03
:1022200003F03003102B06D0202B07D0002B08D151
:10223000154B7B6205E0154B7B6202E0144B7B6221
:1022400000BF00233B6217E03B6A9B007A68D4180A
:102250003B6A5B0007F12802134433F9183C184627
:1022600003F0B4FD0346796A184603F0B7FE03464F
:1022700023603B6A01333B623B6A022BE4DD00BF13
:102280002C37BD4690BD00BFEC91E44254926442AD
:102290005C8F644180B584B000AF00233B7314238E
:1022A0007B73E023FB730023BB7307F10C03184619
:1022B000FEF71CFB00233B7140237B710723BB719E
:1022C0000023BB7200233B7200237B720823FB7147
:1022D0003B1D1846FEF7A0FA80233B7010237B704D
:1022E0000023BB700023FB703B461846FEF7D0FA74
:1022F00000BF1037BD4680BD90B58BB000AF786091
:10230000002387F826304FF07E533B6207F114021A
:10231000022323213220FEF7D3FB07F10C02062310
:1023200028213220FEF7CCFB7B7D03F04003002BFD
:1023300003D0402387F8273002E0102387F82730A6
:102340003B7D03F04003002B04D07B7D03F0400372
:10235000002B2FD0002387F8263026E097F8263070
:1023600097F826205200013207F128010A4412F89A
:102370001C2C120212B2114697F82620520007F1C7
:102380002800024412F81C2C114497F8272091FBD6
:10239000F2F212B25B0007F128010B4423F8102C73
:1023A00097F82630013387F8263097F82630022B2D
:1023B000D4D92EE0002387F8263026E097F826307F
:1023C00097F82620520007F128010A4412F81C2C25
:1023D000120212B2114697F826205200013207F17C
:1023E0002800024412F81C2C114497F8272091FB76
:1023F000F2F212B25B0007F128010B4423F8102C13
:1024000097F82630013387F8263097F82630022BCC
:10241000D4D907F11402022323213220FEF750FB06
:102420007B7D03F04003002B03D04FF07A533B62D7
:102430001DE03B7D03F03003102B0DD0102B02DC90
:10244000002B05D013E0202B0AD0302B0CD00EE04F
:102450004FF07E533B620AE04FF07C533B6206E054
:102460004FF07A533B6202E0154B3B6200BF002302
:1024700087F826301BE097F826309B007A68D4183E
:1024800097F826305B0007F12802134433F9103C1B
:10249000184603F09BFC0346396A184603F09EFD7C
:1024A0000346236097F82630013387F8263097F8E3
:1024B0002630022BDFD900BF2C37BD4690BD00BFB0
:1024C0009FCDAA3D80B400AF064B1B68002B04D003
:1024D000044B1B68013B034A136000BFBD4680BC30
:1024E000704700BF5C01002080B400AF0023184695
:1024F000BD4680BC704700BF80B400AF00231846C3
:10250000BD4680BC704700BF80B500AF01214FF4CD
:102510000030FEF7EBF801214FF48020FEF7E6F8DB
:1025200001214FF48040FEF7FFF801214FF4802095
:10253000FEF718F900BF80BD80B582B000AF07225A
:1025400009214FF09040FFF78DF907220A214FF043
:102550009040FFF787F94FF400733B6002233B7113
:1025600003237B710023BB710123FB713B4619469A
:102570004FF09040FFF7AAF84FF480633B603B4672
:1025800019464FF09040FFF7A1F800BF0837BD464D
:1025900080BD00BF80B582B000AF07220A2112487B
:1025A000FFF760F907220B210F48FFF75BF94FF4A3
:1025B00080633B6002233B7103237B710023BB716B
:1025C0000123FB713B4619460748FFF77FF84FF49C
:1025D00000633B603B4619460348FFF777F800BFAE
:1025E0000837BD4680BD00BF0004004880B588B0F4
:1025F00000AF4FF41653BB600023FB6000233B6128
:1026000000237B610023FB610C23BB6107F10803FE
:1026100019460E4802F02CFC01220D490B4802F02D
:1026200021FD25233B7100237B710123BB71012315
:10263000FB713B1D184600F047FD0121034802F0E5
:10264000D3FC00BF2037BD4680BD00BF003801402D
:102650000501050080B588B000AF4FF41653BB608C
:102660000023FB6000233B6100237B610023FB61AF
:102670000C23BB6107F1080319460E4802F0F8FB72
:1026800001220D490B4802F0EDFC27233B7100238A
:102690007B710023BB710123FB713B1D184600F0C9
:1026A00013FD0121034802F09FFC00BF2037BD4607
:1026B00080BD00BF004800400501050080B582B024
:1026C00000AF0346FB7100BF8021084802F00CFDFB
:1026D0000346002BF8D0FB799BB21946034802F061
:1026E0009FFC00BF0837BD4680BD00BF00380140D9
:1026F00080B500AF00BF114BDB6903F02003002B56
:10270000F9D00E4802F09EFC0346DAB20C4B1A7068
:102710000B4B1B781A460B4B1A60094B1B781A4659
:10272000094B1A60064B1B781A46084B1A60044B7B
:102730001B781A46064B1A6000BF80BD0038014066
:102740004C020020F0000020F4000020F8000020DF
:10275000FC00002080B500AF00BF1E4BDB6903F01A
:102760002003002BF9D01B4802F06CFC0346DAB2C0
:10277000194B1A70184B1B78242B02D1174B0022CF
:102780001A70164B1B781A46134B1B781946144BBC
:1027900043F82210104B1B781846FFF78FFF0F4BA2
:1027A0001B780133DAB20D4B1A700B4B1B780D2BD3
:1027B00003D0094B1B780A2B0AD10022094905488E
:1027C00002F050FC0D20FFF779FF0A20FFF776FF9B
:1027D00000BF80BD004800408E030020B0010020F3
:1027E0005C0200200501050080B500AF002000F06C
:1027F000F1F9024B01221A7000BF80BDB101002027
:1028000080B500AF0221134801F018F90346002BF0
:1028100003D002210F4801F03BF904210D4801F0DB
:102820000DF90346002B08D004210A4801F030F9C5
:10283000084B9B6B1A46084B1A600121054801F0B2
:10284000FDF80346002B03D00121024801F020F9D6
:1028500000BF80BD000800408C01002080B500AFA3
:102860000221134801F0EAF80346002B03D00221AD
:102870000F4801F00DF904210D4801F0DFF803467F
:10288000002B08D004210A4801F002F9084B9B6B89
:102890001A46084B1A600121054801F0CFF803469B
:1028A000002B03D00121024801F0F2F800BF80BDE7
:1028B000000400409001002080B500AF02211348C1
:1028C00001F0BCF80346002B03D002210F4801F0B1
:1028D000DFF804210D4801F0B1F80346002B08D0C1
:1028E00004210A4801F0D4F8084B9B6B1A46084BA8
:1028F0001A600121054801F0A1F80346002B03D01E
:102900000121024801F0C4F800BF80BD003401403D
:102910009401002080B584B000AF012000F05AF986
:1029200002214FF09040FEF765FF0346012B1AD1BC
:1029300001211D4800F0E6FC0123BB600023BB73AE
:1029400007F10803184600F04BF80123BB60002391
:102950003B730C237B730123BB7307F108031846F9
:1029600000F03EF81CE0104800F0A0FC03461A46B8
:102970000E4B1A6000210C4800F0C4FC0023BB7110
:102980003B46184600F02CF801233B6000233B71C6
:1029900008237B710123BB713B46184600F020F8E9
:1029A00000BF1037BD4680BD0008004090030020E6
:1029B00080B500AF022000F00DF900BF80BD00BF60
:1029C00080B500AF032000F005F900BF80BD00BF57
:1029D00080B500AF042000F0FDF800BF80BD00BF4F
:1029E00080B485B000AF78600023FB60754BFB605E
:1029F0007B689B79002B00F0C8807B681B685B09B3
:102A000003F1007303F502635B0118467B681B68E2
:102A10005B0903F1007303F502635B011A687B68CD
:102A20001B6803F01F03012101FA03F3DB4313408A
:102A300003607B681B685B095A01634B13441846AB
:102A40007B681B685B095A015F4B13441A687B68FB
:102A50001B6803F01F03012101FA03F3DB4313405A
:102A600003607B681B791A467B681B685B095B0106
:102A70001344FA681344FB60FB68FA6812687968CB
:102A8000096801F01F01012000FA01F10A431A60F0
:102A90004C4BFB607B681B685B095A014B4B134432
:102AA00018467B681B685B095A01484B13441A6837
:102AB0007B681B6803F01F03012101FA03F3DB436A
:102AC000134003607B681B685B095A01404B134449
:102AD00018467B681B685B095A013D4B13441A6812
:102AE0007B681B6803F01F03012101FA03F3DB433A
:102AF000134003607B685B79102B2ED17B681B68C9
:102B00005B095A01314B134418467B681B685B090B
:102B10005A012E4B13441B687A68126802F01F0298
:102B2000012101FA02F2134303607B681B685B0911
:102B30005A01274B134418467B681B685B095A01EE
:102B4000234B13441B687A68126802F01F020121AC
:102B500001FA02F2134303602FE07B685B791A46A7
:102B60007B681B685B095B011344FA681344FB60D4
:102B7000FB68FA6812687968096801F01F01012092
:102B800000FA01F10A431A6017E07B681B791A46C4
:102B90007B681B685B095B011344FA681344FB60A4
:102BA000FB68FA6811687A68126802F01F02012057
:102BB00000FA02F2D2430A401A6000BF1437BD4641
:102BC00080BC704700040140040401400804014037
:102BD0000C04014080B483B000AF78607B685B096F
:102BE0005A01074B134419467B6803F01F03012267
:102BF00002FA03F30B6000BF0C37BD4680BC704780
:102C00001404014080B582B000AF78607B68174A39
:102C100093420AD101214FF48050FDF7C1FD0021FC
:102C20004FF48050FDF7BCFD1CE07B68104A9342D6
:102C30000AD101214FF48040FDF7D0FD00214FF46F
:102C40008040FDF7CBFD0DE07B680A4A934209D135
:102C500001214FF40040FDF7C1FD00214FF4004079
:102C6000FDF7BCFD00BF0837BD4680BD0030014008
:102C700000380040003C004080B485B000AF786070
:102C800039600023FB813B685B88B3F5827F36D1D6
:102C90007B681B88FB81FB8903F44153FB813B6804
:102CA0001A883B685B8813439AB23B68D9883B68B3
:102CB0001B890B4399B23B6858893B689B89034346
:102CC00098B23B68DB8903439BB20B439BB213432F
:102CD0009AB2FB891343FB817B68FA891A807B686F
:102CE0009B88FB81FB8923F47063FB813B689A8896
:102CF000FB891343FB817B68FA899A8035E07B6806
:102D00009B88FB81FB8923F47063FB813B689A8875
:102D1000FB891343FB817B68FA899A807B681B8857
:102D2000FB81FB8903F44153FB813B681A883B68B4
:102D30005B8813439AB23B68D9883B681B890B4375
:102D400099B23B6858893B689B89034398B23B68BA
:102D5000DB8903439BB20B439BB213439AB2FB89BB
:102D60001343FB817B68FA891A807B689B8B9BB23B
:102D700023F400639AB27B689A833B681A8A7B6863
:102D80001A8200BF1437BD4680BC704780B483B040
:102D900000AF78600B46FB70FB78002B08D07B6897
:102DA0001B889BB243F040039AB27B681A8007E00D
:102DB0007B681B889BB223F040039AB27B681A8021
:102DC00000BF0C37BD4680BC704700BF80B483B0E5
:102DD00000AF78600B467B807B689B889BB223F4B6
:102DE00080539AB27B689A807B689B889AB27B8872
:102DF00013439AB27B689A8000BF0C37BD4680BCF3
:102E0000704700BF80B485B000AF78600B46FB70A0
:102E10000023FB607B68FB60FB680C33FB60FB6896
:102E2000FA781A7000BF1437BD4680BC704700BFE7
:102E300080B485B000AF78600023FB607B68FB60E6
:102E4000FB680C33FB60FB681B78DBB21846143759
:102E5000BD4680BC704700BF80B485B000AF7860CD
:102E60000B467B800023FB737B681B899AB27B88AF
:102E700013409BB2002B02D00123FB7301E000231F
:102E8000FB73FB7B18461437BD4680BC704700BF00
:102E900080B485B000AF786039600023FB607B6848
:102EA0001B6823F001027B681A607B681B68FB606B
:102EB000FA68284B1340FB603B685A683B689B6884
:102EC0001B021343FA681343FB607B68FA681A60BD
:102ED0003B681B6823F070627B681A617B681B6823
:102EE00043F001027B681A600023FB607B68FA688C
:102EF0009A607B68FA68DA603B689A693B681B698C
:102F00001343FB607B68FA689A607B689B6843F4B4
:102F100000427B689A603B68DB68FB607B681A68EC
:102F2000FB681A437B681A607B685B68FB60FB6820
:102F300023F0784323F40043FB603B685B69FA6845
:102F40001343FB607B68FA685A6000BF1437BD46C4
:102F500080BC7047FFE0CF0080B483B000AF7860E2
:102F60000B46FB70FB78002B06D07B681B6843F098
:102F700001027B681A6005E07B681B6823F0010290
:102F80007B681A6000BF0C37BD4680BC704700BF2D
:102F900080B487B000AFF8607B600B467B8113463E
:102FA0007B7200237B61FB685B687B617A690D4BF8
:102FB00013407B617B89C3F309027B7A1B0403F412
:102FC0007F031A437B681A433B6A13437A691343AE
:102FD0007B61FB687A695A6000BF1C37BD4680BCC4
:102FE000704700BF009800FC80B483B000AF7860E9
:102FF0000B46FB70FA787B689A6200BF0C37BD46BF
:1030000080BC704780B483B000AF78607B685B6A37
:10301000DBB218460C37BD4680BC704780B485B023
:1030200000AF786039600023BB600023FB737B68CE
:103030009B69BB60BA683B681340BB60BB68002BF0
:1030400002D00123FB7301E00023FB73FB7B1846D6
:103050001437BD4680BC704780B483B000AF786041
:1030600039607B683A68DA6100BF0C37BD4680BCC6
:10307000704700BF80B400AF074B00221A60074BB7
:103080004FF43F421A80064B044A12881A6000230C
:103090001846BD4680BC7047445C00403C0200209E
:1030A000405C004080B483B000AF7860054A7B6824
:1030B00043F0BF6343F40033D36000BF0C37BD4619
:1030C00080BC704700ED00E080B487B000AF78604E
:1030D00000237B6100233B610F23FB607B68DB786F
:1030E000002B3AD0274BDB68DB4303F4E0631B0A79
:1030F0007B617B69C3F104033B61FA687B6922FA57
:1031000003F3FB607B685B781A463B6902FA03F3C2
:103110007B617B689B781A46FB6813407A6913438E
:103120007B617B691B017B61174A7B681B7879692E
:10313000C9B213440A4683F80023134A7B681B78FC
:103140005B09DBB218467B681B7803F01F03012183
:1031500001FA03F342F820300FE00B497B681B783B
:103160005B09DBB218467B681B7803F01F03012262
:103170009A4000F1200341F8232000BF1C37BD46D0
:1031800080BC704700ED00E000E100E080B485B055
:1031900000AF786039600023FB817B681B88FB816E
:1031A0007B682C4A93420FD07B682B4A93420BD00A
:1031B0007B68B3F1804F07D07B68284A934203D0E5
:1031C0007B68274A934208D1FB8923F07003FB8177
:1031D0003B685A88FB891343FB817B68214A9342F1
:1031E0000CD07B68204A934208D0FB8923F44073BB
:1031F000FB813B681A89FB891343FB817B68FA8951
:103200001A803B685A687B68DA623B681A887B6878
:103210001A857B680F4A93420FD07B680E4A93420F
:103220000BD07B68114A934207D07B68104A9342C7
:1032300003D07B680F4A934204D13B689B7A9AB2D1
:103240007B681A867B6801225A6100BF1437BD462D
:1032500080BC7047002C0140003401400004004055
:1032600000080040001000400014004000400140F1
:10327000004401400048014080B483B000AF786052
:103280007B684FF0FF325A607B6800221A807B68AF
:1032900000221A817B6800225A807B6800229A7281
:1032A00000BF0C37BD4680BC704700BF80B483B000
:1032B00000AF78607B685B6A18460C37BD4680BCFF
:1032C000704700BF80B483B000AF78600B46FB70DE
:1032D000FB78002B08D07B681B889BB243F08003EF
:1032E0009AB27B681A8007E07B681B889BB223F048
:1032F00080039AB27B681A8000BF0C37BD4680BC41
:10330000704700BF80B483B000AF78600B46FB709D
:10331000FB78002B08D07B681B889BB243F001032D
:103320009AB27B681A8007E07B681B889BB223F007
:1033300001039AB27B681A8000BF0C37BD4680BC7F
:10334000704700BF80B487B000AF78603960002359
:10335000FB6000237B6100233B617B681B6A23F0D9
:1033600001027B681A627B681B6A7B617B685B6811
:103370003B617B689B69FB60FB6823F4803323F02F
:103380007003FB60FB6823F00303FB603B681B6872
:10339000FA681343FB607B6923F002037B613B689F
:1033A0009B891A467B6913437B613B689B881A465D
:1033B0007B6913437B617B68264A93420FD07B680D
:1033C000254A93420BD07B68244A934207D07B68FE
:1033D000234A934203D07B68224A934227D17B69D8
:1033E00023F008037B613B68DB891A467B69134342
:1033F0007B617B6923F004037B613B68DB881A46B1
:103400007B6913437B613B6923F480733B613B69B8
:1034100023F400733B613B681B8A1A463B691343E4
:103420003B613B685B8A1A463B6913433B617B689F
:103430003A695A607B68FA689A613B689A687B6867
:103440005A637B687A691A6200BF1C37BD4680BC2C
:10345000704700BF002C0140003401400040014093
:10346000004401400048014080B487B000AF78605C
:1034700039600023FB6000237B6100233B617B6894
:103480001B6A23F010027B681A627B681B6A7B61EF
:103490007B685B683B617B689B69FB60FB6823F032
:1034A000807323F4E043FB60FB6823F44073FB600C
:1034B0003B681B681B02FA681343FB607B6923F0BF
:1034C00020037B613B689B891B017A6913437B6105
:1034D0003B689B881B017A6913437B617B68204AA8
:1034E000934203D07B681F4A934227D17B6923F024
:1034F00080037B613B68DB891B017A6913437B6135
:103500007B6923F040037B613B68DB881B017A69A0
:1035100013437B613B6923F480633B613B6923F484
:1035200000633B613B681B8A9B003A6913433B6124
:103530003B685B8A9B003A6913433B617B683A694D
:103540005A607B68FA689A613B689A687B689A63FC
:103550007B687A691A6200BF1C37BD4680BC704721
:10356000002C01400034014080B487B000AF786087
:1035700039600023FB6000237B6100233B617B6893
:103580001B6A23F480727B681A627B681B6A7B610A
:103590007B685B683B617B68DB69FB60FB6823F0F1
:1035A0007003FB60FB6823F00303FB603B681B6850
:1035B000FA681343FB607B6923F400737B613B680B
:1035C0009B891B027A6913437B613B689B881B02C2
:1035D0007A6913437B617B68204A934203D07B68FE
:1035E0001F4A934227D17B6923F400637B613B68C8
:1035F000DB891B027A6913437B617B6923F4806357
:103600007B613B68DB881B027A6913437B613B6902
:1036100023F480533B613B6923F400533B613B68D7
:103620001B8A1B013A6913433B613B685B8A1B01A0
:103630003A6913433B617B683A695A607B68FA6870
:10364000DA613B689A687B68DA637B687A691A6238
:1036500000BF1C37BD4680BC704700BF002C014036
:103660000034014080B487B000AF78603960002337
:103670003B610023FB6000237B617B681B6A23F4B2
:1036800080527B681A627B681B6AFB607B685B68A0
:103690007B617B68DB693B613B6923F4E0433B6111
:1036A0003B6923F440733B613B681B681B023A692A
:1036B00013433B61FB6823F40053FB603B689B8929
:1036C0001B03FA681343FB603B689B881B03FA6883
:1036D0001343FB607B68114A934203D07B68104A16
:1036E000934209D17B6923F480437B613B681B8A49
:1036F0009B017A6913437B617B687A695A607B68B6
:103700003A69DA613B689A687B681A647B68FA6890
:103710001A6200BF1C37BD4680BC7047002C0140B8
:103720000034014080B483B000AF786039607B68BA
:103730003A685A6300BF0C37BD4680BC704700BF73
:1037400080B483B000AF786039607B683A689A6370
:1037500000BF0C37BD4680BC704700BF80B483B04B
:1037600000AF786039607B683A68DA6300BF0C3775
:10377000BD4680BC704700BF80B483B000AF7860A6
:1037800039607B683A681A6400BF0C37BD4680BC5C
:10379000704700BF80B485B000AF78600B467B8077
:1037A0000023FB607B689B69FB60FB6823F00803D8
:1037B000FB607B88FA681343FB607B68FA689A6158
:1037C00000BF1437BD4680BC704700BF80B485B0D1
:1037D00000AF78600B467B800023FB607B689B69B1
:1037E000FB60FB6823F40063FB607B881B021A46C6
:1037F000FB681343FB607B68FA689A6100BF14376B
:10380000BD4680BC704700BF80B485B000AF786013
:103810000B467B800023FB607B68DB69FB60FB68F9
:1038200023F00803FB607B88FA681343FB607B6826
:10383000FA68DA6100BF1437BD4680BC704700BF2C
:1038400080B485B000AF78600B467B800023FB60BE
:103850007B68DB69FB60FB6823F40063FB607B88AB
:103860001B021A46FB681343FB607B68FA68DA6147
:1038700000BF1437BD4680BC704700BF80B483B022
:1038800000AF78607B6800221A807B6800225A8033
:103890007B6801229A807B680022DA807B680022A4
:1038A0001A8100BF0C37BD4680BC704780B584B01C
:1038B00000AF786039600023FB810123BB813B6846
:1038C0005B88002B02D10223FB8101E00023FB81F6
:1038D0003B689B88012B02D10223BB8101E00123BD
:1038E000BB813B681B88002B1CD13B6859883B6817
:1038F0009A883B681B89786800F028F93B68DB8868
:103900001946786800F02EF83B681B89BA89F98956
:10391000786800F05BF93B68DB881946786800F04E
:1039200039F81BE03B6859883B689A883B681B89DB
:10393000786800F04BF93B68DB881946786800F03E
:1039400029F83B681B89BA89F989786800F0FEF884
:103950003B68DB881946786800F004F800BF103730
:10396000BD4680BD80B483B000AF78600B467B80DD
:103970007B689B6923F00C027B689A617B689A697B
:103980007B881A437B689A6100BF0C37BD4680BCB8
:10399000704700BF80B483B000AF78600B467B8077
:1039A0007B689B6923F440627B689A617B689A69B3
:1039B0007B881B021A437B689A6100BF0C37BD46A7
:1039C00080BC704780B483B000AF78600B46FB705A
:1039D000FB78002B06D07B685B6C43F400427B686D
:1039E0005A6405E07B685B6CC3F30E027B685A6423
:1039F00000BF0C37BD4680BC704700BF80B483B0A9
:103A000000AF78600B467B8013467B707B78002B81
:103A100006D07B68DA687B881A437B68DA6007E047
:103A20007B68DB687A88D24392B21A407B68DA609E
:103A300000BF0C37BD4680BC704700BF80B485B066
:103A400000AF78600B467B800023FB730023BB81B3
:103A500000237B817B681B699AB27B881340BB8102
:103A60007B68DB689AB27B8813407B81BB89002B23
:103A700005D07B89002B02D00123FB7301E00023DA
:103A8000FB73FB7B18461437BD4680BC704700BFF4
:103A900080B483B000AF78600B467B807B88DB43CB
:103AA0009BB21A467B681A6100BF0C37BD4680BCCA
:103AB000704700BF80B485B000AF78600B467B8054
:103AC0000023FB817B689B68FB81FB8923F07003EB
:103AD000FB81FA897B881343FB81FA897B689A60B2
:103AE00000BF1437BD4680BC704700BF80B483B0B0
:103AF00000AF786039607B689B6823F4803323F0E3
:103B000007037A6893607B689A683B681A437B680E
:103B10009A6000BF0C37BD4680BC704780B483B04C
:103B200000AF78600B467B807B689A684FF67F73A6
:103B300013407A6893607B689A687B881A437B6835
:103B40009A6000BF0C37BD4680BC704780B487B018
:103B500000AFF860084611461A4603467B810B46C3
:103B60003B811346FB8000237B6100233B61FB68A4
:103B70001B6A23F00102FB681A62FB689B697B6188
:103B8000FB681B6A3B617B6923F0F3037B613A8925
:103B9000FB881B0113437A6913437B613B6923F064
:103BA0000A033B617B8943F001039BB21A463B69E0
:103BB00013433B61FB687A699A61FB683A691A6250
:103BC00000BF1C37BD4680BC704700BF80B489B0C1
:103BD00000AFF860084611461A4603467B810B4643
:103BE0003B811346FB800023FB610023BB61002364
:103BF0007B61FB681A6A4FF6EF731340FA68136231
:103C0000FB689B69FB61FB681B6ABB617B891B01CD
:103C10009BB27B61FB6923F47343FB61FB881B034D
:103C2000FA691343FB613B891B02FA691343FB6189
:103C3000BA694FF65F731340BB617B699BB243F077
:103C400010039BB21A46BB691343BB61FB68FA6958
:103C50009A61FB68BA691A6200BF2437BD4680BC0E
:103C6000704700BF80B584B000AF78600023FB735D
:103C70000023BB7300F0E2F87B681A787B685B78FE
:103C80001343DAB27B689B781343DAB27B68DB7844
:103C90001343DAB2FB7B1343DBB2FB737B681A7905
:103CA0007B685B791343DAB27B689B791343DAB2A2
:103CB000BB7B1343DBB2BB7307F10F03012220214F
:103CC000184600F053F807F10E030122232118468D
:103CD00000F04CF800BF1037BD4680BD80B584B001
:103CE00000AF786007F10F0301222121184600F090
:103CF0006DF8FB7B23F03F03DBB2FB737B681A7824
:103D00007B685B781343DAB2FB7B1343DBB2FB7354
:103D100007F10F0301222121184600F027F800BF08
:103D20001037BD4680BD00BF80B584B000AF0346EC
:103D3000FB7107F10F0301222421184600F046F819
:103D4000FB7B23F01003DBB2FB73FA7BFB7913439D
:103D5000DBB2FB7307F10F0301222421184600F0A8
:103D600005F800BF1037BD4680BD00BF80B582B0EA
:103D700000AF78600B46FB7013463B803B88012BFD
:103D800003D9FB7843F04003FB7008210E48FDF790
:103D90005BFDFB78184600F0FBF80AE07B681B78B7
:103DA000184600F0F5F83B88013B3B807B68013307
:103DB0007B603B88002BF1D108210348FDF736FDDD
:103DC00000BF0837BD4680BD0010004880B582B0F6
:103DD00000AF78600B46FB7013463B803B88012B9D
:103DE00004D9FB7863F03F03FB7003E0FB7863F0DA
:103DF0007F03FB7008211048FDF726FDFB7818466D
:103E000000F0C6F80CE0002000F0C2F803461A46A5
:103E10007B681A703B88013B3B807B6801337B6089
:103E20003B88002BEFD108210348FDF7FFFC00BFC2
:103E30000837BD4680BD00BF0010004880B588B07F
:103E400000AF01214FF48050FCF76EFC01214FF4CC
:103E50000030FCF74BFC01214FF40010FCF746FC4E
:103E600001214FF40010FCF741FC01214FF4001038
:103E7000FCF73CFC052205214FF09040FDF7F2FCD9
:103E8000052206214FF09040FDF7ECFC05220721AA
:103E90004FF09040FDF7E6FC02233B770023BB7711
:103EA0000023FB7703237B772023BB6107F11803F3
:103EB00019464FF09040FDF709FC8023BB6107F1E4
:103EC000180319464FF09040FDF700FC4023BB61FA
:103ED00007F1180319464FF09040FDF7F7FB2A4809
:103EE000FEF790FE0023BB804FF4E0633B8100238C
:103EF0007B810023BB814FF40073FB8110233B8245
:103F000000237B820723BB824FF48273FB803B1D1F
:103F100019461D48FEF7B0FE4FF480511A48FEF7CF
:103F200055FF01211848FEF731FF0823BB6101232B
:103F30003B770023BB7703237B7707F118031946F0
:103F40001248FDF7C3FB08211048FDF76FFC012361
:103F5000BB6100233B770023BB7703237B770023E0
:103F6000FB7707F1180319460848FDF7AFFB02235A
:103F7000BB6107F1180319460448FDF7A7FB00BF12
:103F80002037BD4680BD00BF003001400010004812
:103F900080B582B000AF0346FB711E4B4FF48052D8
:103FA0001A600BE01B4B1B685A1E1A490A60002B53
:103FB00004D1FEF799FA0346DBB227E00221164846
:103FC000FEF74AFF0346002BECD0FB791946124856
:103FD000FEF718FF0F4B4FF480521A600BE00D4BA9
:103FE0001B685A1E0B490A60002B04D1FEF77CFAAD
:103FF0000346DBB20AE001210748FEF72DFF034626
:10400000002BECD00448FEF713FF03461846083790
:10401000BD4680BD000100200030014090B484B056
:1040200000AF03460A46FB711346BB710023FB60D9
:10403000BB7903F003039B000F2202FA03F3FB603A
:104040001649BB799B08DBB21846144ABB799B081A
:10405000DBB2023352F82320FB68DB431A40831C97
:1040600041F823200D48BB799B08DBB21C460B4A64
:10407000BB799B08DBB2023352F82320F979BB7974
:1040800003F003039B0001FA03F31A43A31C40F857
:10409000232000BF1037BD4690BC70470000014090
:1040A00080B586B000AF364B1B68184601F08EFE17
:1040B000034619464FF07E5001F090FF0346314908
:1040C000184601F0D7FE0346184602F099F802465A
:1040D0002D4B1A602A4B1B68184601F077FE0346E9
:1040E00019464FF07E5001F079FF03461A46274BE0
:1040F0001A60274B7B61224B1B687A6992FBF3F2B3
:104100001F4B1B6892FBF3F3013B3B610121012034
:10411000FCF728FB4FF42F7000F0E8FA02461D4B25
:104120001A603B699BB2BB800023FB80144B1B6869
:10413000013BBB600023BB810023BB733B1D1946C1
:104140004FF08040FFF722F801214FF08040FFF749
:10415000D9F8012201214FF08040FFF74FFC1C23CA
:104160003B7000237B700123BB700123FB703B4637
:104170001846FEF7A9FF00BF1837BD4680BD00BF37
:104180003001002000007A450404002024040020AF
:10419000005125021004002080B485B000AFF86003
:1041A000B9607A603B607B681B68334A1360BB6808
:1041B0001B68324A1360FB681B68314A1360FB6856
:1041C0001B68304A1360FB681B682F4A1360FB684A
:1041D0001B682E4A13603B681A68294B1B681344FE
:1041E000274A1360274B1A683B681B68D31A254A75
:1041F00013603B681A68244B1B681344224A1360FF
:10420000224B1A683B681B68D31A204A13601C4B68
:104210001B6803F5FA631E4A13601A4B1B6803F50B
:10422000FA631C4A1360184B1B6803F5FA631A4AB9
:104230001360164B1B6803F5FA63184A1360104BA2
:104240001B68A3F5E163164A13600E4B1B68A3F5C8
:10425000E163144A13600C4B1B68A3F5E163124A37
:1042600013600A4B1B68A3F5E163104A136000BF9B
:104270001437BD4680BC7047DC010020E0010020FF
:10428000080100200C010020100100201401002072
:1042900020040020E403002018040020FC03002078
:1042A0003404002028040020F4030020E003002050
:1042B00080B485B000AFF860B9607A603B607B681D
:1042C0001A68BB681B681344344A1360BB681A68D9
:1042D0007B681B68D31A324A1360FB681B68314A3B
:1042E0001360FB681B68304A1360FB681B682F4A29
:1042F0001360FB681B682E4A13603B681A68294BE1
:104300001B681344274A1360274B1A683B681B68D5
:10431000D31A254A13603B681A68244B1B68134460
:10432000224A1360224B1A683B681B68D31A204A42
:1043300013601C4B1B6803F5FA631E4A13601A4B8B
:104340001B6803F5FA631C4A1360184B1B6803F5DE
:10435000FA631A4A1360164B1B6803F5FA63184A8E
:104360001360104B1B68A3F5E163164A13600E4BF4
:104370001B68A3F5E163144A13600C4B1B68A3F59B
:10438000E163124A13600A4B1B68A3F5E163104A0C
:10439000136000BF1437BD4680BC7047DC010020AD
:1043A000E0010020080100200C0100201001002085
:1043B0001401002020040020E40300201804002041
:1043C000FC0300203404002028040020F403002013
:1043D000E003002080B400AF2B4B1A682B4B1B6806
:1043E0009A4204DB294B1B68274A136009E0264BDD
:1043F0001A68274B1B689A4203DC254B1B68224A2C
:104400001360244B1A68244B1B689A4204DB224B2E
:104410001B68204A136009E01E4B1A681F4B1B687B
:104420009A4203DC1D4B1B681A4A13601C4B1A6826
:104430001C4B1B689A4204DB1A4B1B68184A13601A
:1044400009E0174B1A68184B1B689A4203DC164B9D
:104450001B68134A1360154B1A68154B1B689A4268
:1044600004DB134B1B68114A136009E00F4B1A68F9
:10447000104B1B689A4203DC0E4B1B680B4A1360FF
:1044800000BFBD4680BC7047EC030020180400202C
:10449000F403002030040020E4030020280400205E
:1044A0003804002020040020340400200C040020E4
:1044B000FC030020E003002080B400AF334B1A68F7
:1044C000334B1B689A4204DB314B1B682F4A136045
:1044D0000DE02F4B1B68A3F57A722C4B1B689A4298
:1044E00005DB2B4B1B68A3F57A73284A1360294B15
:1044F0001A68294B1B689A4204DB274B1B68254A24
:1045000013600DE0244B1B68A3F57A72214B1B68E6
:104510009A4205DB204B1B68A3F57A731D4A136092
:104520001E4B1A681E4B1B689A4204DB1C4B1B680F
:104530001A4A13600DE01A4B1B68A3F57A72174BE9
:104540001B689A4205DB164B1B68A3F57A73134A66
:104550001360144B1A68144B1B689A4204DB124B0D
:104560001B68104A13600DE00F4B1B68A3F57A72AD
:104570000C4B1B689A4205DB0B4B1B68A3F57A7347
:10458000084A136000BFBD4680BC7047EC030020A2
:1045900010010020300400200C010020380400200D
:1045A000080100200C0400201401002080B582B016
:1045B00000AF01214FF40010FCF798F84FF4D443FA
:1045C0003B6002233B7103237B710023BB710123FA
:1045D000FB713B4619460D48FDF778F80222092188
:1045E0000A48FDF73FF902220B210848FDF73AF986
:1045F00002220E210548FDF735F902220D2103485C
:10460000FDF730F900BF0837BD4680BD00100048F7
:1046100080B588B000AF01214FF40060FCF784F84A
:1046200007F114031846FEF727FE2D4B1B689BB2BB
:10463000BB8240F62C33BB610023BB830023FB828B
:1046400007F1140319462748FEF7A0FD60233B60DD
:104650000123BB80244B1B685B00BB600023BB8134
:104660004FF480733B820023FB800023FB814FF4D7
:1046700080737B823B4619461A48FEF763FE082189
:104680001848FFF787F83B4619461648FEF7ECFE38
:1046900008211448FFF79AF83B4619461148FEF7DF
:1046A00063FF08210F48FFF7AFF83B4619460D4856
:1046B000FEF7D8FF08210B48FFF7C2F80021094890
:1046C000FEF700FE01210748FFF77CF901210548AC
:1046D000FEF718FE00BF18462037BD4680BD00BF5C
:1046E00000040020002C0140F8030020B0B590B079
:1046F00000AF78605F4BFB635F4BBB63FA6BBB6BD8
:1047000092FBF3F3013B7B63FA6BBB6B92FBF3F31E
:10471000013B5A4A1360BA6B7B6892FBF3F33B632D
:10472000386B01F053FB0346184601F007F80446C6
:104730000D46786800F0F0FF02460B464FF000008F
:104740004F4901F079F902460B462046294601F00F
:1047500073F903460C461846214601F055FA034604
:10476000FB62386B01F032FB0346184600F0E6FFAF
:1047700004460D46786800F0CFFF02460B464FF026
:1047800000003F4901F058F902460B4620462946F1
:1047900001F052F903460C461846214601F034FA5E
:1047A0000246384B1A6001214FF40060FBF7BCFF52
:1047B00007F120031846FEF75FFD7B6B9BB23B843D
:1047C00040F629337B6200233B8500237B8407F17D
:1047D000200319462C48FEF7D9FC6023FB60012317
:1047E0003B82FB6A5B007B6100233B834FF4807359
:1047F000BB8300237B8200237B834FF48073FB8386
:1048000007F10C0319462048FEF79CFD08211E48BD
:10481000FEF7C0FF07F10C0319461B48FEF724FE04
:1048200008211948FEF7D2FF07F10C031946164874
:10483000FEF79AFE08211448FEF7E6FF07F10C0385
:1048400019461148FEF70EFF08210F48FEF7F8FF42
:1048500000210D48FEF736FD01210B48FFF7B2F8A5
:1048600001210948FEF74EFD3B6B18464037BD4617
:10487000B0BD00BF00A24A0480841E0000040020D6
:1048800000408F40F8030020002C014080B586B026
:1048900000AFF860B9607A60BB687A6802FB03F326
:1048A0005B09184AA2FB0323DB097B61FB68013B20
:1048B000032B23D801A252F823F000BFCD480008F3
:1048C000D9480008E5480008F14800087B69194606
:1048D0000D48FEF727FF11E07B6919460A48FEF7ED
:1048E0002FFF0BE07B6919460748FEF737FF05E00D
:1048F0007B6919460448FEF73FFF00BF00BF183729
:10490000BD4680BDC55A7C0A002C01400000000055
:10491000B0B584B000AF01214FF08040FFF78EF8B2
:104920000346002B00F027820023FB600023BB60BE
:1049300000237B6000233B6001214FF08040FFF7A4
:10494000A7F8FFF765FE8648FDF7F4FB8548FDF7FD
:10495000D3FC844B5A68834B9B681946104600F081
:10496000DBFB03468049184601F084FA03461846EB
:1049700001F046FC02467D4B1A607A4B1A68794B6F
:104980009B681946104600F0C7FB03467649184657
:1049900001F070FA0346184601F032FC0246744BEF
:1049A0001A60744B1B68184601F010FA05466C4BF0
:1049B0001C68714B1B68184601F008FA034619463B
:1049C000204601F057FA03461946284601F04AF9F5
:1049D0000346184601F014FC0246664B1A60654B0C
:1049E0001B68184600F098FE59A3D3E9002300F095
:1049F000F9FE03460C4625461C465D4B1B681846CF
:104A000000F08AFE54A3D3E9002300F0EBFE024637
:104A10000B462046294600F033FD03460C46184657
:104A2000214601F0F1F80246524B1A60534B1B68C5
:104A3000184601F0CBF90546494B5C684E4B1B68A4
:104A4000184601F0C3F903461946204601F012FA50
:104A500003461946284601F005F90346184601F0B9
:104A6000CFFB0246454B1A60444B1B68184600F0CA
:104A700053FE37A3D3E9002300F0B4FE03460C46EF
:104A800025461C46394B1B68184600F045FE32A3EC
:104A9000D3E9002300F0A6FE02460B462046294635
:104AA00000F0EEFC03460C461846214601F0ACF837
:104AB0000246324B1A60324B1A682E4B1B68D31ACF
:104AC000FB60304B1A682D4B1B68D31ABB602E4B12
:104AD0001A682E4B1B689A4211DA2D4B1A682D4B1F
:104AE0001B689A420BDA284B1A682B4B1B689A42B8
:104AF00005DD274B1A68294B1B689A4204DC284BBA
:104B00001B68274A136005E0254B1A68FB681344AD
:104B1000234A1360234B1A68234B1B689A4211DA0D
:104B2000224B1A68224B1B689A420BDA1D4B1A68FB
:104B3000204B1B689A4205DD1C4B1A681E4B1B68F4
:104B40009A423DDC1D4B1B681C4A13603EE000BFCF
:104B50005C8FC2F5285CEF3F7B14AE47E17A94BFCF
:104B6000C4010020D001002000CF5F472C040020AA
:104B7000140400201C04002004040020F003002082
:104B8000DC010020E0010020380400202004002087
:104B9000EC0300201804002034040020F40300205B
:104BA000E401002030040020E40300200C04002075
:104BB000FC03002028040020E0030020E80100207E
:104BC0006F4B1A68BB6813446D4A13606D4B1B68CA
:104BD000FA68D31A7B606B4AFB6813606A4B1B68E8
:104BE000BA68D31A3B60684ABB681360F86801F082
:104BF000EDF80246654B1B681946104601F03AF97C
:104C000003461C46624B1B68184601F0DFF802465B
:104C1000604B1B681946104601F02CF903461946F3
:104C2000204601F01FF803461C46786801F0CEF8D4
:104C30000246594B1B681946104601F01BF9034602
:104C40001946204601F00EF80346184601F0D8FA3E
:104C50000246524B1A60B86801F0B8F80246504B51
:104C60001B681946104601F005F903461C46444BE3
:104C70001B68184601F0AAF802464A4B1B68194601
:104C8000104601F0F7F803461946204600F0EAFF07
:104C900003461C46386801F099F80246424B1B68EF
:104CA0001946104601F0E6F803461946204600F082
:104CB000D9FF0346184601F0A3FA02463B4B1A609F
:104CC000364B1B683A4A1360344B1B685B42394AC7
:104CD0001360364B1B68384A1360344B1B685B42C9
:104CE000364A1360324B1A68354B1B681344304AFE
:104CF0001360304B1A68334B1B6813442D4A136002
:104D00002E4B1A68304B1B6813442C4A13602A4BF5
:104D10001A682E4B1B681344274A13602C4B1B78D0
:104D2000012B02D1FFF756FB05E0294B1B78002B26
:104D300001D1FFF7C1FB274B19681F4B1B681A46AF
:104D40000220FFF7A3FD234B1968194B1B681A4675
:104D50000120FFF79BFD1F4B1968184B1B681A4673
:104D60000420FFF793FD1B4B1968124B1B681A4672
:104D70000320FFF78BFD00BF1037BD46B0BD00BF5D
:104D8000E8010020EC010020F001002018010020C3
:104D9000E40100201C01002020010020F40100207B
:104DA00024010020280100202C010020F80100200F
:104DB000EC030020380400200C0400203004002004
:104DC00010010020080100200C0100201401002027
:104DD000040100201004002080B588B000AF034615
:104DE0000A46FB711346BB714FF40033012118468C
:104DF000FBF77CFC01210120FBF796FC00233B77AD
:104E00000023FB770123BB61FB79184A52F823305A
:104E100007F1180211461846FCF758FCBB79012B24
:104E20001FD10023002211461846FFF7F7F8002390
:104E30003B6100233B7508237B750123BB7507F19C
:104E400010031846FDF7CCFD06233B730F237B733D
:104E50000F23BB730123FB7307F10C031846FEF706
:104E600033F900BF2037BD4680BD00BF540100208C
:104E700080B594B000AF786039600023FB640023F4
:104E8000BB6400237B647B681B6823F001027B68A2
:104E90001A607B685B687B647B6C23F440537B64A3
:104EA0003B689B687A6C13437B647B687A6C5A60BE
:104EB0007B681B687B647B6C23F4B05323F00C038A
:104EC0007B643B685A683B68DB681A433B681B6934
:104ED00013437A6C13437B647B687A6C1A607B683B
:104EE0009B687B647B6C23F440737B643B685B69E9
:104EF0007A6C13437B647B687A6C9A6007F10803D1
:104F00001846FBF7DBF97B68334A934202D13B6BCF
:104F1000BB6416E07B68314A934202D17B6BBB6471
:104F20000FE07B682E4A934202D1BB6BBB6408E062
:104F30007B682C4A934202D1FB6BBB6401E03B6C63
:104F4000BB647B681B6803F40043002B11D0BB6C6F
:104F50005A003B681B68B2FBF3F3FB64BB6C5B005D
:104F60003A681268B3FBF2F102FB01F29B1A7B6410
:104F70000EE03B681B68BA6CB2FBF3F3FB643B6862
:104F80001A68BB6CB3FBF2F102FB01F29B1A7B6463
:104F90003B681B685A087B6C9A4202D8FB6C013351
:104FA000FB647B681B6803F40043002B0BD0FB6C95
:104FB0005B0803F007037B64FA6C4FF6F073134051
:104FC0007A6C1343FB64FB6C9AB27B689A8100BFD6
:104FD0005037BD4680BD00BF00380140004400404E
:104FE00000480040004C004080B483B000AF7860BF
:104FF0000B46FB70FB78002B06D07B681B6843F0E8
:1050000001027B681A6005E07B681B6823F00102DF
:105010007B681A6000BF0C37BD4680BC704700BF7C
:1050200080B483B000AF78600B467B807B88C3F38D
:1050300008039AB27B681A8500BF0C37BD4680BC56
:10504000704700BF80B483B000AF78607B689B8CF2
:105050009BB2C3F308039BB218460C37BD4680BC15
:10506000704700BF80B489B000AFF860B9601346E4
:10507000FB710023BB6100237B6100233B610023A4
:10508000FB61FB68FB61BB689BB21B0A9BB2BB6107
:10509000BB68DBB27B6101227B6902FA03F33B61EF
:1050A000BB69022B03D1FB690433FB6105E0BB69DB
:1050B000032B02D1FB690833FB61FB79002B06D07F
:1050C000FB69FA6911683A690A431A6006E0FB69EC
:1050D000FA6911683A69D2430A401A6000BF24375E
:1050E000BD4680BC704700BF80B485B000AF78601B
:1050F00039600023FB737B68DA693B681340002B3F
:1051000002D00123FB7301E00023FB73FB7B1846F5
:105110001437BD4680BC704700F000B8F8B50C46A7
:1051200021F00041B1F1FF4F034614DC20F00046AE
:10513000B6F1FF4F07460EDCB4F17E5F3DD0A517F8
:1051400005F0020545EAD07556B9022D31D0032D80
:105150002CD13248F8BD1946204600F083FDF8BD39
:1051600001B3B1F1FF4F2CD0B6F1FF4F1AD0711A35
:10517000C9153C291BDC002C39DB2146184600F000
:105180002DFF00F073F900F05BF8012D2CD0022DFB
:1051900022D0002D2FD0224900F064FD214900F0DB
:1051A0005FFDF8BD002F06DB1F48F8BDF8BD1E48A7
:1051B000EBE71C48F8BD1D48F8BDBDE8F84000F01D
:1051C0003FB8B6F1FF4F17D0022DF2D0032DC0D05B
:1051D000012D19D00020F8BD114900F043FD014612
:1051E000104800F03DFDF8BD00F10040F8BD3C3135
:1051F000C3DA0020C9E7F8BD022D0CD0032D08D07A
:10520000012D04D00A48F8BD4FF00040F8BD094810
:10521000F8BD0948F8BD0948F8BD00BFDB0F49C01B
:105220002EBDBB33DB0F4940DB0FC93FDB0FC9BFCE
:10523000DB0F493FDB0F49BFE4CB16C0E4CB164080
:105240002DE9F04120F00045B5F1A14F0446064696
:1052500008DBB5F1FF4F6FDC002840F3A0806F48FA
:10526000BDE8F0816E4B9D4277DCB5F1445F68DBB1
:105270004FF0FF372146204600F0FCFD01468046F6
:1052800000F0F8FD6749054600F0F4FD664900F0BE
:10529000E9FC294600F0EEFD644900F0E3FC2946F4
:1052A00000F0E8FD624900F0DDFC294600F0E2FD77
:1052B000604900F0D7FC294600F0DCFD5E4900F0B3
:1052C000D1FC414600F0D6FD5C498046284600F0FE
:1052D000D1FD5B4900F0C4FC294600F0CBFD5949E3
:1052E00000F0BEFC294600F0C5FD574900F0B8FCAF
:1052F000294600F0BFFD554900F0B2FC294600F0F8
:10530000B9FD7B1C014640464CD000F0ABFC214669
:1053100000F0B0FD4E4B4F4D53F8271000F0A0FCAD
:10532000214600F09DFC014655F8270000F098FC4E
:10533000002E30DBBDE8F081014600F093FCBDE8B3
:10534000F081454900F08EFC4FF07E5100F04EFF99
:1053500000288DD02046BDE8F08100F087F83F4B53
:105360009D42044629DCA3F5D0039D4244DC01465E
:1053700000F078FC4FF07E5100F072FC4FF080415D
:105380000546204600F06EFC0146284600F026FE49
:10539000002704466EE700F10040BDE8F081304888
:1053A000BDE8F08100F05EFC214600F063FD01469F
:1053B000204600F055FCBDE8F0812A4B9D4214DCEC
:1053C0004FF07F5100F04CFC4FF07F5105462046D6
:1053D00000F050FD4FF07E5100F044FC014628469D
:1053E00000F0FCFD0227044644E701461E4800F099
:1053F000F5FD032704463DE74FF07E5100F030FCF9
:105400004FF07E510546204600F02CFC0146284610
:1054100000F0E4FD012704462CE700BFDB0FC93F85
:10542000FFFFDF3ED769853C59DA4B3D356B883D40
:105430006E2EBA3D2549123EABAAAA3E21A215BD49
:105440006BF16E3D95879D3D388EE33DCDCC4C3E56
:105450005C6300086C630008CAF24971FFFF973F64
:10546000DB0FC9BFFFFF1B40000080BF20F00040E2
:10547000704700BF81F0004102E000BF83F00043AD
:1054800030B54FEA41044FEA430594EA050F08BFDF
:1054900090EA020F1FBF54EA000C55EA020C7FEAA3
:1054A000645C7FEA655C00F0E2804FEA5454D4EB20
:1054B0005555B8BF6D420CDD2C4480EA020281EAEA
:1054C000030382EA000083EA010180EA020281EA22
:1054D0000303362D88BF30BD11F0004F4FEA013174
:1054E0004FF4801C4CEA113102D0404261EB410183
:1054F00013F0004F4FEA03334CEA133302D0524209
:1055000063EB430394EA050F00F0A780A4F10104C4
:10551000D5F1200E0DDB02FA0EFC22FA05F28018FE
:1055200041F1000103FA0EF2801843FA05F35941E4
:105530000EE0A5F120050EF1200E012A03FA0EFC63
:1055400028BF4CF0020C43FA05F3C01851EBE3718D
:1055500001F0004507D54FF0000EDCF1000C7EEBAA
:1055600000006EEB0101B1F5801F1BD3B1F5001FE8
:105570000CD349085FEA30004FEA3C0C04F1010407
:105580004FEA445212F5800F80F09A80BCF1004F30
:1055900008BF5FEA500C50F1000041EB045141EAB2
:1055A000050130BD5FEA4C0C404141EB010111F4B3
:1055B000801FA4F10104E9D191F0000F04BF01465E
:1055C0000020B1FA81F308BF2033A3F10B03B3F13C
:1055D00020020CDA0C3208DD02F1140CC2F10C02CC
:1055E00001FA0CF021FA02F10CE002F11402D8BF2A
:1055F000C2F1200C01FA02F120FA0CFCDCBF41EAF6
:105600000C019040E41AA2BF01EB0451294330BDC4
:105610006FEA04041F3C1CDA0C340EDC04F11404A1
:10562000C4F1200220FA04F001FA02F340EA030078
:1056300021FA04F345EA030130BDC4F10C04C4F1BE
:10564000200220FA02F001FA04F340EA030029469E
:1056500030BD21FA04F0294630BD94F0000F83F4E8
:10566000801306BF81F480110134013D4EE77FEACB
:10567000645C18BF7FEA655C29D094EA050F08BF17
:1056800090EA020F05D054EA000C04BF19461046F8
:1056900030BD91EA030F1EBF0021002030BD5FEA3C
:1056A000545C05D14000494128BF41F0004130BD64
:1056B00014F580043CBF01F5801130BD01F00045B8
:1056C00045F0FE4141F470014FF0000030BD7FEA2B
:1056D000645C1ABF194610467FEA655C1CBF0B4626
:1056E000024650EA013406BF52EA033591EA030F3D
:1056F00041F4002130BD00BF90F0000F04BF002135
:10570000704730B54FF4806404F132044FF0000567
:105710004FF0000150E700BF90F0000F04BF0021E0
:10572000704730B54FF4806404F1320410F0004546
:1057300048BF40424FF000013EE700BF42004FEA41
:10574000E2014FEA31014FEA02701FBF12F07F43BE
:1057500093F07F4F81F06051704792F0000F14BFBB
:1057600093F07F4F704730B54FF4607401F00045FF
:1057700021F0004120E700BF50EA010208BF704756
:1057800030B54FF000050AE050EA010208BF70474B
:1057900030B511F0004502D5404261EB41014FF4B4
:1057A000806404F132045FEA915C3FF4DCAE4FF0B8
:1057B00003025FEADC0C18BF03325FEADC0C18BF9F
:1057C000033202EBDC02C2F1200300FA03FC20FAF0
:1057D00002F001FA03FE40EA0E0021FA02F114443D
:1057E000C1E600BF70B54FF0FF0C4CF4E06C1CEA52
:1057F00011541DBF1CEA135594EA0C0F95EA0C0FC7
:1058000000F0DEF82C4481EA030621EA4C5123EA39
:105810004C5350EA013518BF52EA033541F4801168
:1058200043F4801338D0A0FB02CE4FF00005E1FB1B
:1058300002E506F00042E0FB03E54FF00006E1FB65
:1058400003569CF0000F18BF4EF0010EA4F1FF04A8
:10585000B6F5007F64F5407404D25FEA4E0E6D41E8
:1058600046EB060642EAC62141EA55514FEAC520F9
:1058700040EA5E504FEACE2EB4F1FD0C88BFBCF575
:10588000E06F1ED8BEF1004F08BF5FEA500E50F126
:10589000000041EB045170BD06F0004646EA0101EC
:1058A00040EA020081EA0301B4EB5C04C2BFD4EB1E
:1058B0000C0541EA045170BD41F480114FF0000E17
:1058C000013C00F3AB8014F1360FDEBF002001F085
:1058D000004170BDC4F10004203C35DA0C341BDCFF
:1058E00004F11404C4F1200500FA05F320FA04F0D1
:1058F00001FA05F240EA020001F0004221F0004105
:1059000010EBD37021FA04F642EB06015EEA430E77
:1059100008BF20EAD37070BDC4F10C04C4F12005A7
:1059200000FA04F320FA05F001FA04F240EA02005A
:1059300001F0004110EBD37041F100015EEA430E2B
:1059400008BF20EAD37070BDC4F1200500FA05F24B
:105950004EEA020E20FA04F301FA05F243EA0203CA
:1059600021FA04F001F0004121FA04F220EA0200D9
:1059700000EBD3705EEA430E08BF20EAD37070BD1F
:1059800094F0000F0FD101F00046400041EB0101FF
:1059900011F4801F08BF013CF7D041EA060195F0E1
:1059A000000F18BF704703F00046520043EB03039B
:1059B00013F4801F08BF013DF7D043EA0603704788
:1059C00094EA0C0F0CEA135518BF95EA0C0F0CD093
:1059D00050EA410618BF52EA4306D1D181EA0301D9
:1059E00001F000414FF0000070BD50EA410606BFD3
:1059F0001046194652EA430619D094EA0C0F02D118
:105A000050EA013613D195EA0C0F05D152EA03365C
:105A10001CBF104619460AD181EA030101F000417A
:105A200041F0FE4141F470014FF0000070BD41F0C3
:105A3000FE4141F4780170BD70B54FF0FF0C4CF49D
:105A4000E06C1CEA11541DBF1CEA135594EA0C0FBC
:105A500095EA0C0F00F0A7F8A4EB050481EA030E09
:105A600052EA03354FEA013100F088804FEA0333F0
:105A70004FF0805545EA131343EA12634FEA0222BE
:105A800045EA111545EA10654FEA00260EF000417F
:105A90009D4208BF964244F1FD0404F5407402D2D1
:105AA0005B084FEA3202B61A65EB03055B084FEA62
:105AB00032024FF480104FF4002CB6EB020E75EB5F
:105AC000030E22BFB61A754640EA0C005B084FEA87
:105AD0003202B6EB020E75EB030E22BFB61A754604
